:020000040800F2
:1000000000190020010100083B0100083D01000823
:1000100041010008450100084901000800000000F6
:100020000000000000000000000000004D0100087A
:100030004F01000800000000510100086D01000898
:10004000250100081B0100081B0100081B01000816
:100050001B0100081B0100081B0100081B01000810
:100060001B0100081B0100081B0100081B01000800
:100070001B0100081B0100081B0100081B010008F0
:100080001B0100081B0100081B0100081B010008E0
:100090001B0100081B0100081B0100081B010008D0
:1000A0001B0100081B0100081B0100081B010008C0
:1000B000910200081B0100081B0100081B01000839
:1000C0001B0100081B0100081B0100081B010008A0
:1000D0001B0100081B0100081B0100084902000861
:1000E0001B0100081B0100081B010008DFF80CD0F1
:1000F00003F09CFF00480047E901000800190020B8
:100100000648804706480047FEE7FEE7FEE7FEE7B1
:10011000FEE7FEE7FEE7FEE7FEE7FEE7DB3E000860
:10012000ED00000810B57E2002F0FDF920B17F201F
:1001300003F049FE03F058FE10BD704700BFFEE714
:1001400000BFFEE700BFFEE700BFFEE77047704755
:10015000704700B585B0684602F0A3FA1F490098C1
:10016000B0FBF1F01E49086005B000BD1D480068F5
:10017000401C1C490860704700BF1A4801684FF0D6
:10018000E0208269174800688142F6D1144800686F
:1001900000EB4003C3EBC010C2EBC000104B1B6868
:1001A000B0FBF3F001EB4103C3EBC11300EBC30061
:1001B000704730B50446FFF7DFFF054600BFFFF785
:1001C000DBFF401B04EB4401C1EBC411B0EBC10FDA
:1001D000F5D330BD034800687047000040420F006F
:1001E0000000002004000020482000F0ABFA01F0DD
:1001F000B9FD00F05BFA00F0FBFA00F06EFE4FF480
:10020000FA7000F0B9FA4FF4FA7000F0B5FA4FF452
:10021000FA7000F0B1FA4FF4FA7000F0ADFA01F0A4
:100220000BF801F0C1FD00F0D3F900F00AF900F07D
:1002300005FB4FF480513A4802F093F803E0394946
:10024000394800F06EFBFAE708B50020009008215D
:10025000364803F035FD30B10821344803F03DFD48
:10026000324803F0C3FC40F22551304803F03EFD14
:1002700068B140F225512D4803F062FD2B4803F090
:10028000B5FCC0B200902749684600F0FDFA08BDF1
:1002900010B50121880703F054FB00283ED001214E
:1002A000880703F05FFB22480078401C2049087053
:1002B00020480088401C1F4908801A4800780228FE
:1002C0000FD100F05DFF1C480078401C1A490870EF
:1002D00008460078152804D1002008700120124932
:1002E00008704FF480510E4802F039F81048007839
:1002F000C82807D100200E4908704FF480510848E3
:1003000002F02FF80B480088B0F57A7F06D1002064
:100310000849088009A10AA003F09AFE10BD000058
:10032000000C01400A0000200C00002000480040A2
:100330000B000020080000200D0000204130360096
:1003400025733A4F4B0D0A0000B585B0012144F2E8
:10035000040002F013FA4FF40070ADF810001820FA
:100360008DF8130003208DF8120004A9944801F0C1
:1003700049FF4FF48060ADF8100004208DF81300A1
:1003800004A98F4801F03EFF4FF4E13000900020B7
:10039000ADF80400ADF80600ADF80800ADF80C00AB
:1003A0000C20ADF80A006946864803F022FB0121C3
:1003B000844803F0AAFB05B000BD08B54FF4C06047
:1003C00001F028FD0E208DF8000001208DF80100BD
:1003D0008DF802008DF80300684601F020FD08BD8D
:1003E00000B58BB00121084602F0BBF9FFF7E5FF2D
:1003F000754801F07DFD7348001D00907348019021
:10040000102002900A200390002004908020059084
:10041000400006908000079020200890000209907C
:1004200000200A906946684801F004FE012202217A
:10043000654801F036FE0121634801F026FE0BB04D
:1004400000BD10B5FFF780FFFFF7CAFF10BDF0B584
:1004500003460D461646002729460A2E03D00020E3
:1004600008702846F0BD33B9302001F8010B002098
:1004700008702846F6E7002B03DA2D2001F8010B5F
:100480005B4242F210720DE093FBF2F404B937B113
:1004900004F1300001F8010B04FB123301270A209C
:1004A00092FBF0F2002AEFDC002008702846D9E722
:1004B0000FB470B586B006460020029003900490F9
:1004C00005900CA8019073E00B9800785C281CD173
:1004D0000B98401C0B9000786E2809D072280FD121
:1004E0000D21304603F07EFB0B98401C0B900BE077
:1004F0000A21304603F076FB0B98401C0B9003E07A
:100500000B98401C0B9000BF4BE00B9800782528FF
:1005100040D10B98401C0B900078642818D07328A9
:1005200033D1019810C801900BE02178304603F0D8
:1005300059FB00BF8021304603F0C2FB0028F9D0F0
:10054000641C20780028F0D10B98401C0B9020E010
:10055000019820C801900A2202A92846FFF777FFD8
:1005600002AC0BE02178304603F03CFB00BF802159
:10057000304603F0A5FB0028F9D0641C2078002841
:10058000F0D10B98401C0B9003E00B98401C0B9093
:1005900000BF06E00B9810F8011B0B90304603F0EB
:1005A00021FB00BF8021304603F08AFB0028F9D0F0
:1005B0000B980078002887D106B070BC5DF814FB5A
:1005C0000008014000380140440002405000002073
:1005D00000B587B00121092002F0D0F8012188047C
:1005E00002F0D9F84FF48060ADF8180003208DF8C0
:1005F0001A0018208DF81B0006A92A4801F002FEF7
:100600004FF40060ADF8180004208DF81B0006A917
:10061000244801F0F7FD4FF4A06001F0FBFB272018
:100620008DF8040001208DF805008DF806008DF886
:10063000070001A801F0F3FB4FF4E1300290002025
:10064000ADF80C00ADF80E00ADF81000ADF81400D8
:100650000C20ADF8120002A9134803F0CAF90122D8
:1006600040F22551104803F05CFA01224FF4587112
:100670000D4803F056FA01210B4803F046FA07B083
:1006800000BD70B504460D46E1B2074803F0AAFA72
:1006900000BF4021044803F013FB0128F9D1204694
:1006A00070BD0000000C01400048004008B5012169
:1006B000082002F063F84FF48050ADF800001020DD
:1006C0008DF8030003208DF8020069461C4801F0F4
:1006D00099FD4FF480511A4801F043FE322000F09A
:1006E0004BF84FF48051164801F039FE322000F0EB
:1006F00043F84FF48051124801F033FE322000F0ED
:100700003BF84FF480510E4801F029FE322000F0F2
:1007100033F84FF480510A4801F021FE322000F0F6
:100720002BF84FF48051064801F01BFE322000F0F8
:1007300023F84FF48051024801F011FE08BD00007B
:10074000000C014010B504466FF0040001F0B1FB4D
:10075000E11704EB5171C1F3C701234A1170104630
:10076000007800EB4001C1EBC0104FF6FF7101EAC9
:10077000C0001E49088010BD01461C4A12884A4329
:100780004FF0E0235A6100229A6101221A6100BFF2
:100790004FF0E022106900F001021AB100F480323B
:1007A000002AF5D000224FF0E0231A619A617047C9
:1007B00001460D4A12784A434FF0E0235A61002265
:1007C0009A6101221A6100BF4FF0E022106900F027
:1007D00001021AB100F48032002AF5D000224FF055
:1007E000E0231A619A6170470E000020100000207B
:1007F00008B50121042001F0C1FF41F20400ADF869
:10080000000010208DF8030003208DF802006946D7
:100810008F4801F0F7FC04218D4801F0A0FD4FF452
:100820008050ADF8000004208DF8030003208DF8FF
:1008300002006946864801F0E5FC08BD10B585A0B8
:1008400003F006FC84A003F003FC88A188A003F059
:10085000FFFB8CA18DA003F0FBFB90A190A003F007
:10086000F7FB93A003F0F4FB97A003F0F1FB9BA030
:1008700003F0EEFB9DA003F0EBFBA1A003F0E8FB6F
:10088000A5A003F0E5FB10BD70B505460C46287821
:10089000702810D008DC06283CD0302836D06128DB
:1008A00030D065283AD129E072281FD0752821D090
:1008B000772833D103E002209C4908702FE0032001
:1008C0009A49087000209A4908700220207000F0B0
:1008D00083FC72A197A003F0BBFB0121880702F003
:1008E00067FD0121974802F063FD18E004208F495D
:1008F000087014E008208D49087010E005208B492D
:1009000008700CE006208949087008E00720874934
:10091000087004E008208549087000E000BF00BFAF
:1009200070BD70B504460D468048007802281AD183
:100930000021400702F03CFD0021824802F038FD12
:1009400056A181A003F084FB00F046FC0020287033
:100950004FF48051804801F004FD00207F49087069
:100960007249087073E02078012804D100F0B2FECB
:10097000002020706BE06D480078042824D100210D
:10098000000702F015FD45A175A003F061FB4FF4CF
:100990008051714801F0E3FC00BF01F0F7F8012835
:1009A000FBD03EA175A003F053FB4FF480516A4881
:1009B00001F0D7FC00205D4908704FF4FA70FFF792
:1009C000DBFE01F009F942E058480078082824D1FC
:1009D0000021C00602F0ECFC30A16EA003F038FB51
:1009E0004FF480515C4801F0BAFC00BF01F0E1F81F
:1009F0000128FBD029A16FA003F02AFB4FF48051FE
:100A0000554801F0AEFC0020484908704FF4FA70D8
:100A1000FFF7B2FE01F0E0F819E04448007805283D
:100A200005D101F011F90020404908700FE03F485E
:100A30000078062805D100F072FB00203B490870C1
:100A400005E03A480078072801D101F073F970BD3C
:100A5000000801400D0A0000BFC5C1A3D4CBB6AF4A
:100A6000B2E2C1BFCFB5CDB30D0A0000312E3600C2
:100A7000B9CCBCFEB0E6B1BEBAC5A3BA25730D0AA7
:100A800000000000323031382F313200B8FCD0C2C3
:100A9000CAB1BCE4A3BA25730D0A00004130360088
:100AA000C9E8B1B8BAC5A3BA25730D0A00000000A1
:100AB000464C415348D0BEC6ACC8DDC1BFA3BA3115
:100AC000364D420D0A000000B2C9D1F9C6B5C2CAFE
:100AD000A3BA323030487A0D0A000000BCD3CBD91B
:100AE000B6C8A3BAA1C03136470D0A00CDD3C2DDC6
:100AF000D2C7A3BAA1C0323030306470730D0A007F
:100B0000C9CFBAA3C0EDB9A4B4F3D1A720C7E5BB40
:100B1000AAB4F3D1A70D0A00C9E8B1B8D7BCB1B8DF
:100B2000BECDD0F72E2E2E0D0A00000012000020A0
:100B30000D00002025732053544152542121210DD2
:100B40000A0000000004004025732053544F502039
:100B50002121210D0A000000000C01400B000020A3
:100B60000D0A20257320BFAACABCB6C1C8A157323E
:100B7000355131323821200D0A0000000D0A2025A0
:100B80007320B6C1C8A1BDE1CAF8A3A1A3A1A3A1C6
:100B9000200D0A000D0A20257320CDA8B9FD55535C
:100BA00041525431B6C1C8A1573235513132382182
:100BB000200D0A000D0A20257320CDA8B9FD55533C
:100BC00041525431B6C1C8A1BDE1CAF8A3A1A3A145
:100BD000A3A1200D0A00000008B50121082001F0A2
:100BE000CDFDC020ADF8000003208DF802001420D8
:100BF0008DF8030069468B4801F004FB08BD10B571
:100C00008848006820F070408649086008460068FF
:100C100040F0405008600120834908608349C1F8D2
:100C200098010420FFF7C4FD00207F4908600420DC
:100C3000FFF7BEFD00207D49C1F8980110BD10B539
:100C40007848006820F070407649086008460068DF
:100C500040F04050086000207349091F0860734944
:100C6000C1F89C010420FFF7A3FD01206E49091F74
:100C700008606E49C1F89C010420FFF799FD10BD82
:100C800010B500206849091F08606648006820F018
:100C90007040644908600846006840F040500860B1
:100CA00000206249C1F89C010220FFF781FD01206C
:100CB0005D49091F08600220FFF77AFD00205B49AB
:100CC000C1F8980110BD10B500205749091F0860F0
:100CD0005448006820F07040524908600846006897
:100CE00040F04050086001205049C1F89C010220AA
:100CF000FFF75EFD01204C49091F08600220FFF745
:100D000057FD00204949C1F8980110BD10B50024D5
:100D10004448006820F07040424908600846006876
:100D200040F00040086001203F490860FFF740FDA7
:100D300001203E49C1F89801FFF73AFD07E0601C29
:100D4000C4B2FA2C03DDFFF77AFF012010BD36484C
:100D5000803800680028F2D13349091F086000BFBD
:100D6000F4E770B504462F48006820F070402D4924
:100D700008600846006840F04050086000202A499A
:100D8000091F0860002517E0E00927490860600690
:100D9000040E0220FFF70CFD01202449C1F8980140
:100DA0000220FFF705FD00201F49091F08600220EF
:100DB000FFF7FEFC681CC5B2082DE5DB70BD70B501
:100DC000054600241748006820F070401549086067
:100DD0000846006840F000400860002617E0002048
:100DE0001149091F08600220FFF7E2FC01200F49AA
:100DF000C1F898016006040E0B488038006808B1FD
:100E0000601CC4B20120FFF7D3FC701CC6B2082ED0
:100E1000E5DB15B1FFF734FF01E0FFF754FF204693
:100E200070BD0000000C01409C81214200802142E5
:100E300070B506460C461546FFF7E1FE3046FFF753
:100E400090FFFFF763FF2046FFF78BFFFFF75EFF82
:100E50002846FFF786FFFFF759FFFFF7F0FE70BD4A
:100E600070B504460D46FFF7CAFE2046FFF779FF2E
:100E7000FFF74CFF2846FFF774FFFFF747FFFFF728
:100E8000BEFE611CC8B2FFF76CFFFFF73FFF0020FA
:100E9000FFF795FF0646FFF7D2FE304670BD70B5EE
:100EA00005460C46FFF7ABFE1820FFF75AFFFFF789
:100EB0002DFF2846FFF755FFFFF728FFFFF79FFE9E
:100EC0001920FFF74EFFFFF721FF2046FFF777FFBE
:100ED0000646FFF7B4FE304670BD10B5FFF77CFE46
:100EE00000226B21D020FFF7A3FF4FF47A70FFF7A9
:100EF00043FC01221921D020FFF79AFF06221A2174
:100F0000D020FFF795FF18221B21D020FFF790FF7C
:100F100018221C21D020FFF78BFF00226A21D0204D
:100F2000FFF786FF02223721D020FFF781FF10BD97
:100F300070B504462146D020FFF792FF0546601C9D
:100F4000C1B2D020FFF78CFF0646A54800780C28D8
:100F500002DB0020A2490870A248A1490978455443
:100F600001469F480078401C0E549D480078801C24
:100F70009B49087006EB052080B270BD70B5044631
:100F80002146D020FFF76CFF0546601CC1B2D0207F
:100F9000FFF766FF06469348914909784554014694
:100FA0008F480078401C0E548D480078801C8C4976
:100FB000087006EB052080B270BD3EB504463B20AC
:100FC000FFF7B6FF0090009800F4004018B10098B9
:100FD000A0F5803000903D20FFF7AAFF0190019816
:100FE00000F4004018B10198A0F5803001903F2036
:100FF000FFF79EFF0290029800F4004018B102989B
:10100000A0F580300290784900980968401A206065
:10101000754901984968401A606073490298896867
:10102000401AA0603EBD3EB504464320FFF7A6FF30
:101030000090009800F4004018B10098A0F58030AE
:1010400000904520FFF79AFF0190019800F40040BE
:1010500018B10198A0F5803001904720FFF78EFF6E
:101060000290029800F4004018B10298A0F5803078
:1010700002905E4900980968401A20605B49019817
:101080004968401A6060594902988968401AA0600E
:101090003EBD2DE9FE43044600260027B0466425E8
:1010A0004FF000092EE04320FFF768FF0090009802
:1010B00000F4004018B10098A0F58030009000982E
:1010C00006444520FFF75AFF0190019800F40040C4
:1010D00018B10198A0F5803001900198074447208D
:1010E000FFF74CFF0290029800F4004018B10298FC
:1010F000A0F580300290029880440A20FFF73CFB64
:1011000009F10109A945CEDB96FBF5F0206097FBBC
:10111000F5F0606098FBF5F0A060BDE8FE8308B5CF
:101120004FF48051324801F01AF93048FFF7B1FF0F
:101130002E48806800902D4843682EA102682EA09A
:1011400002F086FF4FF48051294801F00AF908BDEA
:1011500000B58BB008A8FFF730FF05A8FFF763FFC5
:10116000DDE905310A9A0798CDE90023CDE902109F
:1011700020A129A0DDE9082302F06AFF0BB000BD21
:1011800010B586B0002403A8FFF717FF6846FFF7E5
:101190004AFF00BF08E01348005D25490978214453
:1011A000244A5054601CC4B20C2CF4DB2048007854
:1011B0000C301F49087008460078FC280AD100202E
:1011C00008701C4981F8FC0081F8FD0081F8FE00E0
:1011D00081F8FF0006B010BD00200149087070477B
:1011E00013000020F0130020E4130020D813002087
:1011F000000C014041303600257320CDD3C2DDD232
:10120000C7B5C4C1E3C6AFCEAAA3BA2025642025C2
:10121000642025640D0A00002573202564202564C0
:101220002025642025642025642025640D0A000003
:1012300014000020FC13002000B587B001212420F9
:1012400001F09CFA0121080301F098FA2020ADF882
:10125000040003208DF8060018208DF8070001A96E
:10126000FC4800F0CFFF4020ADF8040001A9F94888
:1012700000F0C8FF8020ADF8040001A9F54800F097
:10128000C1FF1020ADF804008DF8070001A9F14856
:1012900000F0B8FF0820ADF8040010208DF807001A
:1012A00001A9EC4800F0AEFF0821EA4801F057F828
:1012B0001021E84801F053F80020ADF808004FF481
:1012C0008270ADF80A000020ADF80C000220ADF8E5
:1012D0000E000120ADF810004002ADF81200002011
:1012E000ADF81400ADF816000720ADF8180002A9FB
:1012F000D94801F0CDFA0121D74801F06EFB07B0C3
:1013000000BD10B5044600BF0221D34801F0E9FB3F
:101310000028F9D02146D04801F090FB00BF012100
:10132000CD4801F0DEFB0028F9D0CB4801F088FB66
:10133000C0B210BD10B500241021C64801F011F84C
:101340000520FFF7DEFF00BFFF20FFF7DAFF0446AE
:1013500004F001000028F7D11021BE4800F0FFFF83
:1013600010BD10B51021BB4800F0FBFF0620FFF7B1
:10137000C8FF1021B74800F0F2FF10BD10B50446B9
:10138000FFF7EFFFFFF7D6FF1021B24800F0E9FFAB
:101390002020FFF7B6FFC4F30740FFF7B2FFC4F306
:1013A0000720FFF7AEFFE0B2FFF7ABFF1021A9481F
:1013B00000F0D5FFFFF7BEFF10BD10B5FFF7D1FF5E
:1013C0001021A44800F0CDFFC720FFF79AFF10219D
:1013D000A04800F0C4FFFFF7ADFF10BD70B5054693
:1013E0000C461646FFF7BDFF10219A4800F0B9FFE2
:1013F0000220FFF786FFC4F30740FFF782FFC4F324
:101400000720FFF77EFFE0B2FFF77BFFB6F5807F96
:1014100001DD4FF4807603E02878FFF772FF6D1C42
:10142000301EA6F101018EB2F6D11021894800F0DC
:1014300096FFFFF77FFF70BD2DE9F05F07460E4670
:1014400014464FF00008C146C2460025AB4606F0E0
:10145000FF0ACAF10000C5B22046E11704EB116192
:10146000C1F30728E11704EB11610912A4EB012174
:1014700001F0FF09BAF1000F20D1B8F1000F05D13A
:10148000224631463846FFF7A9FF64E009E04FF4F1
:10149000807231463846FFF7A1FF06F5807607F5E2
:1014A0008077B8F10000A8F1010101F0FF08EED14A
:1014B0004A4631463846FFF791FF4CE0B8F1000F3D
:1014C00018D1A94510DDA9EB050000F0FF0B2A4655
:1014D00031463846FFF782FF2E442F445A463146A4
:1014E0003846FFF77BFF36E0224631463846FFF7A5
:1014F00075FF30E0601B84B22046E11704EB1161F8
:10150000C1F30728E11704EB11610912A4EB0121D3
:1015100001F0FF092A4631463846FFF75FFF2E44A7
:101520002F4409E04FF4807231463846FFF756FFEA
:1015300006F5807607F58077B8F10000A8F1010183
:1015400001F0FF08EED1B9F1000F04D04A46314650
:101550003846FFF743FFBDE8F09F70B505460C46DF
:10156000164610213B4800F0FCFE0320FFF7C9FEA1
:10157000C4F30740FFF7C5FEC4F30720FFF7C1FE21
:10158000E0B2FFF7BEFE04E0FF20FFF7BAFE2870CE
:101590006D1C301EA6F101018EB2F5D110212D482F
:1015A00000F0DDFE70BD2DE9F0410024002500268D
:1015B00000271021274800F0D4FE9F20FFF7A1FE4E
:1015C000FF20FFF79EFE0546FF20FFF79AFE064626
:1015D000FF20FFF796FE074610211E4800F0BFFED1
:1015E000280440EA062040EA07042046BDE8F081CE
:1015F00010B500241021174800F0B3FEAB20FFF710
:1016000080FEFF20FFF77DFEFF20FFF77AFEFF2020
:10161000FFF777FEFF20FFF774FE044610210D4808
:1016200000F09DFE204610BD10B50446102109486B
:1016300000F097FE0320FFF764FEC4F30740FFF7B6
:1016400060FEC4F30720FFF75CFEE0B2FFF759FE2F
:1016500010BD0000000801400030014010B5FF201F
:10166000FFF74FFE10BD10B5044600BF022117481A
:1016700001F037FA0028F9D02146144801F0DEF9CC
:1016800000BF0121114801F02CFA0028F9D00F48C1
:1016900001F0D6F910BD10B510210D4800F061FE23
:1016A000B920FFF72EFE1021094800F058FE10BDAA
:1016B00010B51021064800F054FEAB20FFF721FEC4
:1016C0001021034800F04BFE10BD00000030014027
:1016D0000008014010B5FB4800880002FA49086084
:1016E0004FF4807208460168F848FFF777FEF54826
:1016F0000088401CF349088008460088B0F5803F08
:101700000DD100214FF0804001F052FE4FF4805186
:10171000EF4800F026FEEFA1EFA002F099FC10BD0B
:1017200070B504460025F44800880002F3490860BB
:101730004FF48072084601682046FFF70EFFFC3424
:10174000E078A17808446178084414F8FC19451839
:1017500035B9E9480088401CE7490880012070BD80
:101760000020FCE7014601F4004010B1A1F58030F3
:1017700070470846FCE710B5002200BF08E0437838
:10178000047843EA04230B80801C891C531CDAB2C2
:101790007E2AF4DB10BD10B502460B46002400BFC4
:1017A00007E01088FFF7DEFF1860921C1B1D601C0D
:1017B000C4B27E2CF5DB10BD38B504460020009085
:1017C0000025042204F1FC016846FFF7C6FE9DF8DF
:1017D00000009DF8011008449DF8021008449DF88F
:1017E00003100844C5B20DB9012038BD0020FCE744
:1017F00070B5ADF5427D0546FC2183A802F0F5FBEE
:101800004FF4FC7105A802F0F0FB002483A92846E0
:10181000FFF7B1FF05A983A8FFF7BDFF00BF73E085
:1018200004EB4400002101EB400005A951F8200021
:10183000B3490968401A04EB4401002202EB41015C
:1018400005AA42F8210004EB4400012101EB40000D
:1018500005A951F82000AA494968401A04EB44013F
:10186000012202EB410105AA42F8210004EB4400E9
:10187000022101EB400005A951F82000A049896828
:10188000401A04EB4401022202EB410105AA42F88E
:10189000210004EB4400032101EB400005A951F8AD
:1018A000200098490968401A04EB4401032202EB26
:1018B000410105AA42F8210004EB4400042101EB98
:1018C000400005A951F820008E494968401A04EBF0
:1018D0004401042202EB410105AA42F8210004EB75
:1018E0004400052101EB400005A951F8200085497D
:1018F0008968401A04EB4401052202EB410105AA64
:1019000042F82100601CC4B2152C89DB002436E0AB
:1019100004EB4400052101EB400005A951F820002B
:1019200004EB4401042202EB410105AA52F8211004
:1019300004EB4402032303EB420205AB53F82220DD
:1019400004EB4403022606EB430305AE56F82330AE
:10195000CDE90032CDE9021004EB4400012101EB96
:10196000400005A951F8203004EB4400400051F834
:10197000202058A164A002F06BFB601CC4B2152C9F
:10198000C6DB67A002F064FB0DF5427D70BD70B54B
:10199000ADF53E7D0646FC217FA802F026FB4FF404
:1019A000FC7101A802F021FB002400257FA930462C
:1019B000FFF7E1FE01A97FA8FFF7EDFE00BF73E08E
:1019C00004EB4400002101EB400001A951F8200084
:1019D0004B490968401A04EB4401002202EB410123
:1019E00001AA42F8210004EB4400012101EB400070
:1019F00001A951F8200042494968401A04EB44010A
:101A0000012202EB410101AA42F8210004EB44004B
:101A1000022101EB400001A951F8200038498968F2
:101A2000401A04EB4401022202EB410101AA42F8F0
:101A3000210004EB4400032101EB400001A951F80F
:101A4000200030490968401A04EB4401032202EBEC
:101A5000410101AA42F8210004EB4400042101EBFA
:101A6000400001A951F8200026494968401A04EBBA
:101A70004401042202EB410101AA42F8210004EBD7
:101A80004400052101EB400001A951F820001D4947
:101A90008968401A04EB4401052202EB410101AAC6
:101AA00042F82100601CC4B2152C89DB002463E0DD
:101AB00008A12448FEF7FCFC23A12248FEF7F8FC0D
:101AC000002550E02000002018000020FC1300201A
:101AD000000C01404130360020257320573235512B
:101AE000313238B4E6B4A2BFD5BCE4D2D1C2FAA335
:101AF000A1A3A1A3A10D0A00220000201C00002028
:101B0000E4130020D81300202573202564202564C9
:101B10002025642025642025642025640D0A00000A
:101B20000D0A3D3D3D3D3D3D3D3D3D3D3D3D3D3D48
:101B30003D3D3D3D3D3D3D3D3D3D3D3D3D3D0D0A38
:101B400000000000003801402000000004EB4400C9
:101B500005EB400001A951F8202050A15048FEF7A4
:101B6000A7FC681CC5B2062DF0DBAFF250014C4853
:101B7000FEF79EFC601CC4B2152C99DBAFF260012D
:101B80004748FEF795FC0DF53E7D70BD00B5C1B030
:101B90004FF4807101A802F028FA01A8FFF7C0FDF8
:101BA00028B101A8FFF724FE012041B000BD0020AC
:101BB000FBE700B5C1B04FF4807101A802F015FA3F
:101BC00001A8FFF7ADFD28B101A8FFF7E0FE012055
:101BD00041B000BD0020FBE770B500240025AFF246
:101BE0000C1130A002F034FA4FF48051344800F068
:101BF000B6FB0021334801F088FF00214FF0804000
:101C000001F0D6FB04E02846FFF7B8FB10342502AC
:101C10002846FFF7D1FD0028F5D12B4908602B4954
:101C200008602B4908802B4908804FF480512448D4
:101C300000F097FB0121234801F067FFAFF26C1120
:101C400025A002F005FA70BD10B5AFF2781129A0F9
:101C500002F0FEF94FF48051194800F080FB00219A
:101C6000184801F052FFFFF7A8FB00201649086052
:101C70001649086016490880164908804FF48051BB
:101C80000F4800F06EFB01210E4801F03EFFAFF25D
:101C9000BC1120A002F0DCF910BD0000256420007A
:101CA000003801400D0A202573203ABFAACABCB2F1
:101CB000C1B3FD57323551313238A3A1200D0A008E
:101CC000000C014000480040180000201C000020CB
:101CD00020000020220000200D0A202573203A5702
:101CE000323551313238B2C1B3FDBDE1CAF8A3A1DA
:101CF000200D0A000D0A202573203ABFAACABCD5C0
:101D0000FBC6ACB2C1B3FD57323551313238A3A155
:101D1000200D0A000D0A202573203A573235513123
:101D20003238D5FBC6ACB2C1B3FDBDE1CAF8A3A140
:101D3000200D0A00012080F3138800BF00BF074870
:101D4000006800F4E06006490843001D034908608C
:101D5000BFF34F8F00BF00BFFEE700000CED00E0B7
:101D60000000FA0508B500208DF8000002208DF86B
:101D700001008DF8020001208DF80300684600F094
:101D80004EF80121C80200F006FD4FF4C07001F0CA
:101D9000FCFF502002F002F87F2002F01AF802F057
:101DA00023F802F00CF808BD1FB50121084600F029
:101DB000F2FC40F2F310ADF8080040F2CF20ADF88D
:101DC00004000020ADF80A00ADF8060001A94FF0AC
:101DD000804000F091FF01224121880701F003FBC0
:101DE00000214FF0804001F0E3FA4FF4A06000F0D2
:101DF00011F81C208DF8000002208DF8010003204E
:101E00008DF8020001208DF80300684600F007F805
:101E10001FBD000031490143314A1160704770B560
:101E2000002100230F22C47804B32D4C246804F44D
:101E3000E064C4F5E064210AC1F10403CA404478B7
:101E400004FA03F18478144021430901254C0678F3
:101E5000A155047804F01F050124AC4005786D11EC
:101E6000AD0005F1E025C5F8004109E0047804F073
:101E70001F050124AC401C4D0678761145F826401C
:101E800070BD1A4A0A400243154B1B1F1A60704767
:101E900039B1134A121D12680243114B1B1D1A60FF
:101EA00006E00F4A121D126882430D4B1B1D1A607B
:101EB0007047042808D14FF0E021096941F004017E
:101EC0004FF0E022116107E04FF0E021096921F0B5
:101ED00004014FF0E0221161704700000000FA0594
:101EE0000CED00E000E400E080E100E080FFFF1F77
:101EF00001684FF6FE7211400160002101604160EF
:101F00008160C1608D49884208D18C49083949688F
:101F100041F00F01894A083A51608AE0874914313B
:101F2000884208D185490839496841F0F001834A5F
:101F3000083A51607DE081492831884208D17F49C3
:101F40000839496841F470617C4A083A516070E090
:101F50007A493C31884208D178490839496841F4C6
:101F60007041764A083A516063E0744950318842C2
:101F700008D172490839496841F470216F4A083A1A
:101F8000516056E06D496431884208D16B49083987
:101F9000496841F47001694A083A516049E067496B
:101FA0007831884208D165490839496841F0706143
:101FB000624A083A51603CE06149884206D1011FFB
:101FC000096841F00F01021F116032E05C491431D1
:101FD000884208D15A49091F096841F0F001584A5E
:101FE000121F116025E056492831884208D1544912
:101FF000091F096841F47061514A121F116018E00D
:102000004F493C31884208D14D49091F096841F4C4
:1020100070414B4A121F11600BE049495031884210
:1020200007D14749091F096841F47021444A121F2A
:102030001160704710B50022026847F6F0739A43AA
:102040000C6A8B6823430C6923434C6923438C69D6
:102050002343CC6923434C6A23438C6A23431A43AA
:102060000260CB6843600B6883604B68C36010BD3F
:102070000021016041608160C16001614161816155
:10208000C161016241628162704721B1026842F020
:102090000102026004E002684FF6FE731A4002601B
:1020A00070471AB103680B43036002E003688B4377
:1020B00003607047416070470146486880B27047CE
:1020C00001460020002201F080531BB11C4B083B4D
:1020D0001A6802E0194B083B1A6802EA01030BB1C7
:1020E000012000E00020704700F0805119B1144930
:1020F000091F086002E0114908394860704701462D
:102100000020002201F080531BB10D4B083B1A68E0
:1021100002E00A4B083B1A6802EA01030BB10120F6
:1021200000E00020704700F0805119B10449091FF8
:10213000086002E001490839486070470800024021
:102140000804024010B50446CC48844208D101215D
:10215000042000F02DFB0021042000F029FB46E0C4
:10216000C748844208D10121082000F021FB00214A
:10217000082000F01DFB3AE0C248844208D101214A
:10218000102000F015FB0021102000F011FB2EE0C4
:10219000BD48844208D10121202000F009FB002124
:1021A000202000F005FB22E0B848844208D101213C
:1021B000402000F0FDFA0021402000F0F9FA16E07E
:1021C000B348844208D10121802000F0F1FA0021B7
:1021D000802000F0EDFA0AE0AE48844207D10121E8
:1021E000801500F0E5FA0021A01500F0E1FA10BD1D
:1021F00010B50121084600F0DBFA0021012000F0B3
:10220000D7FA10BD2DE9F041024600250026002036
:1022100000230024002791F803C00CF00F0591F86B
:1022200003C00CF0100CBCF1000F03D091F802C0F9
:102230004CEA050591F800C0BCF1000F31D01468DC
:1022400000202BE04FF0010C0CFA00F3B1F800C0B5
:102250000CEA03069E4220D183004FF00F0C0CFACB
:1022600003F7BC4305FA03FC4CEA040491F803C0ED
:10227000BCF1280F06D14FF0010C0CFA00FCC2F89B
:1022800014C00AE091F803C0BCF1480F05D14FF02B
:10229000010C0CFA00FCC2F810C0401C0828D1D375
:1022A0001460B1F800C0BCF1FF0F34DD54680020A9
:1022B0002EE000F1080C4FF0010808FA0CF3B1F819
:1022C00000C00CEA03069E4221D183004FF00F0CA0
:1022D0000CFA03F7BC4305FA03FC4CEA040491F83A
:1022E00003C0BCF1280F05D100F1080C08FA0CF866
:1022F000C2F8148091F803C0BCF1480F07D100F177
:10230000080C4FF0010808FA0CF8C2F81080401CC5
:102310000828CED35460BDE8F0814FF6FF710180EC
:10232000022181700421C170704702460020936829
:102330000B400BB1012000E0002070470146886887
:1023400080B2704702460020D3680B400BB10120D9
:1023500000E0002070470146C86880B27047016104
:102360007047416170470AB1016100E04161704707
:10237000C16070474FF480320A438261816182619B
:1023800082698269704702460020434B18684FF605
:102390008073184040EA021008433F4B18607047B2
:1023A0003E49C8617047F0B50A4600230024002169
:1023B000002500F00046B6F1004F02D1364EF1691B
:1023C00001E0354E7168C0F3034583B200F4401656
:1023D000B6F5401F08D121F070612F4E766826F0C7
:1023E00070662D4F7E6012E000F48016B6F5801FF7
:1023F00006D1032606FA05F4A14341F0706106E018
:10240000460D360103FA06F6B14341F0706122B180
:10241000460D360103FA06F6314300F00046B6F1E8
:10242000004F02D11C4EF16101E01B4E7160F0BD06
:1024300030B500228B071C0F0F2303FA04F2164B52
:1024400008338C1053F824309343134C08348D1008
:1024500044F8253023468C1053F824308C07240F81
:1024600000FA04F423430C4C08348D1044F8253052
:1024700030BD0A49DC3108607047000000080140A7
:10248000000C014000100140001401400018014000
:10249000001C0140002001400000014000002042DB
:1024A000DF48006840F00100DD49086008464068E8
:1024B000DC490840DA49486008460068DA490840C3
:1024C000D74908600846006820F480200860084664
:1024D000406820F4FE0048604FF41F008860704799
:1024E000CF49096821F48031CD4A1160114609684D
:1024F00021F480211160B0F5803F03D0B0F5802F2A
:102500000ED106E0C649096841F48031C44A116021
:1025100007E0C349096841F4A021C14A116000E005
:1025200000BF00BF704710B5014600220023002005
:102530004A11012A02D1BA4C236806E0022A02D1CC
:10254000B74C236A01E0B64C636A01F01F02012414
:1025500094401C400CB1012000E0002010BD38B5B3
:10256000002000900024002500BF3120FFF7DBFF92
:1025700005460098401C00900098B0F5A06F01D06F
:10258000002DF2D03120FFF7CEFF08B1012400E08A
:102590000024204638BD01460020A14A106820F0E2
:1025A000F80040EAC10010607047A0490860704719
:1025B000024600209A4B586820F47C1042EA01033E
:1025C0001843974B58607047984908667047014612
:1025D0000020934A506820F0030008435060704781
:1025E0008F48406800F00C007047014600208C4A7C
:1025F000506820F0F000084350607047014600200A
:10260000874A506820F4E0600843506070470146F4
:102610000020834A506820F4605040EAC1005060B6
:10262000704729B17E4A527A02437D4B5A7204E0C8
:102630007B4A527A82437A4B5A7270477B49D8312F
:102640000860704701460020754A506820F44040F9
:102650000843506070470021714A20321170704A5F
:1026600082F82010012802D004280AD104E00121B8
:102670006B4A2032117005E00521694A2032117041
:1026800000E000BF00BF70476949086070476449B7
:10269000096A0143624A116270476549443908601A
:1026A000704730B500210022002400235C4D6D6886
:1026B00005F00C0121B1042905D0082923D105E03A
:1026C0005C4D056022E05B4D05601FE0544D6D6878
:1026D00005F47012524D6D6805F48034022505EB47
:1026E00092421CB9544D554305600BE04C4D6D684A
:1026F00005F400351DB1504D5543056002E04D4DC8
:102700005543056002E04B4D056000BF00BF444DDE
:102710006D6805F0F0010909484D6B5C0568DD4006
:1027200045603F4D6D6805F4E061090A434D6B5CFF
:102730004568DD4085603A4D6D6805F46051C90A11
:102740003E4D6B5C4568DD40C560354D6D6805F4F8
:102750004041890B3A4D6B5CC568B5FBF3F50561EB
:1027600030BD29B12E4A526902432D4B5A6104E013
:102770002B4A526982432A4B5A61704729B1284A31
:1027800092690243264B9A6104E0254A926982438A
:10279000234B9A61704729B1214AD2690243204BE9
:1027A000DA6104E01E4AD26982431D4BDA61704748
:1027B00029B11B4AD2680243194BDA6004E0184A77
:1027C000D2688243164BDA60704729B1144A126905
:1027D0000243134B1A6104E0114A12698243104B01
:1027E0001A61704712494039086070470F49C86440
:1027F00070470B49C87170470948406A40F08070C3
:1028000007494862704701460020054A92680A401D
:102810000AB1012000E0002070470149887270472A
:10282000001002400000FFF8FFFFF6FE00004242E9
:102830008004424200127A0000093D00240000207A
:102840003400002010B50446BE48844208D101215E
:102850008014FFF7ADFF0021A014FFF7A9FF16E0D9
:10286000B948844208D101210014FFF7AEFF0021CE
:102870002014FFF7AAFF0AE0B448844207D10121DF
:10288000C013FFF7A2FF0021E013FFF79EFF10BD6A
:1028900010B50022028802F441520B884C88234371
:1028A0008C882343CC8823430C8923434C892343BE
:1028B0008C892343CC8923431A430280838B4FF2B4
:1028C000FF74234083830B8A038210BD2DE9F04FF0
:1028D00085B005460C464FF0000902274FF000086E
:1028E0004FF0010B0026B246A88B4FF24001084082
:1028F000A88302202884B5F81C90A068022801D182
:1029000000BF38E0A08810B94FF0010B01E04FF094
:10291000020B8D48854200D100E000BF6846FFF7FA
:10292000C0FEDDF800A0E088B0F5007F0AD14FEAD4
:102930001A2000EB80004000A168B0FBF1F0401DC0
:1029400086B20BE04FEA4B10BAFBF0F000EB8000D0
:102950004000A168B0FBF1F0401D86B20A20B6FB32
:10296000F0F606F00108A6EB0800C0F34F074FF69B
:10297000FF7000EA0828022F01DBFF2F02DD02278B
:102980004FF00008E08840EA080038432884A08817
:10299000A1890843618808432188084340F4006006
:1029A00040EA0909A5F81C9005B0BDE8F08F0021A8
:1029B000018041808180C180018141818181C1810B
:1029C0000721018270470021018041808180C18000
:1029D0000221816000218181704721B1028842F08B
:1029E0004002028004E002884FF6BF731A40028062
:1029F000704721B1828B42F48062828304E0828B33
:102A00004FF6FF331A408283704730B5002400230D
:102A10000C110125A540ABB21AB185881D438580F4
:102A200002E085889D43858030BD1AB183880B43C1
:102A3000838002E083888B43838070478181704765
:102A40000146888970474FF6FF62914204D00288A0
:102A500042F48072028004E002884FF6FF631A405D
:102A60000280704721B1828842F00402828004E033
:102A700082884FF6FB731A408280704702884FF2BB
:102A8000FF731A40028002880A430280704701885F
:102A900041F480510180704721B1028842F4005214
:102AA000028004E002884DF6FF731A4002807047EE
:102AB00002460020012901D0108B00E0908A704767
:102AC0000146088A7047B1F5804F04D1028842F46C
:102AD0008042028004E002884BF6FF731A400280B5
:102AE00070470246002013890B400BB1012000E023
:102AF00000207047CA4302817047F0B502460020AB
:102B000000240023002501F00F070126BE40B4B2C7
:102B10000B1101269E40B3B2968806EA030516897A
:102B2000264016B10DB1012000E00020F0BD10B527
:102B3000002201F00F040123A3409AB2D343038182
:102B400010BD00000030014000380040003C004053
:102B500010B50446FE48844208D10121C014FFF795
:102B600027FE0021E014FFF723FEC4E0B4F1804FFC
:102B700008D101210846FFF728FE00210120FFF7B8
:102B800024FEB8E0F348844208D101210220FFF777
:102B90001CFE00210220FFF718FEACE0EE48844244
:102BA00008D101210420FFF710FE00210420FFF7C7
:102BB0000CFEA0E0E948844208D101210820FFF77B
:102BC00004FE00210820FFF700FE94E0E448844260
:102BD00008D101211020FFF7F8FD00211020FFF798
:102BE000F4FD88E0DF48844208D101212020FFF76E
:102BF000ECFD00212020FFF7E8FD7CE0DA4884426C
:102C000008D101214014FFF7D3FD00216014FFF724
:102C1000CFFD70E0D548844209D10121C804FFF7F7
:102C2000C7FD00214FF40020FFF7C2FD63E0D0484C
:102C3000844209D101210805FFF7BAFD00214FF4B4
:102C40008010FFF7B5FD56E0CA48844209D1012142
:102C50004805FFF7ADFD00214FF40010FFF7A8FD78
:102C600049E0C548844208D101214020FFF7ADFD6D
:102C700000214020FFF7A9FD3DE0C048844208D173
:102C800001218020FFF7A1FD00218020FFF79DFD9D
:102C900031E0BB48844208D101218015FFF795FD42
:102CA0000021A015FFF791FD25E0B648844209D127
:102CB00001210804FFF77CFD00214FF48030FFF76D
:102CC00077FD18E0B048844209D101214804FFF79C
:102CD0006FFD00214FF40030FFF76AFD0BE0AB48B9
:102CE000844208D101218804FFF762FD00214FF4DE
:102CF0008020FFF75DFD10BD00220288944B9842B2
:102D00000ED0994B98420BD0B0F1804F08D0914B28
:102D1000984205D0904B984202D0904B984204D1F3
:102D20004FF68F731A404B881A438D4B984207D049
:102D30008C4B984204D04FF6FF431A40CB881A437D
:102D400002808B8883850B880385814B98420BD04A
:102D5000854B984208D08B4B984205D08A4B9842BD
:102D600002D08A4B984201D10B7A038601238382D9
:102D7000704770B5002400220023058C4FF6FE76C4
:102D800035400584028C8388048B4FF68F752C4068
:102D9000B51E2C400D882C43751E2A400D892A43F0
:102DA0004D882A436A4DA8420BD06F4DA84208D0E7
:102DB000744DA84205D0744DA84202D0734DA8426C
:102DC00013D14FF6F7752A404D892A434FF6FB750C
:102DD0002A408D882A434FF6FF652B404FF6FF555A
:102DE0002B408D892B43CD892B4383800483CD8851
:102DF0008586028470BD70B5002400220023058CF6
:102E00004FF6EF7635400584028C8388048B48F6B4
:102E1000FF752C404FF6FF452C400D884FF6FF768E
:102E200006EA05252C434FF6DF752A400D8906EA90
:102E300005152A434D8806EA05152A43444DA84244
:102E400002D0494DA8421DD14FF67F752A404D89C9
:102E50004FF6FF7606EA05152A434FF6BF752A405E
:102E60008D8806EA05152A434FF6FF352B404FF2B1
:102E7000FF752B408D8906EA85052B43CD8906EA2F
:102E800085052B4383800483CD880587028470BD2C
:102E900070B5002400220023058C4FF6FF663540F4
:102EA0000584028C8388848B4FF68F752C404FF6F7
:102EB000FC752C400D882C434FF6FF552A400D8998
:102EC0004FF6FF7606EA05252A434D8806EA0525D2
:102ED0002A431F4DA84202D0234DA8421DD14FF2D4
:102EE000FF752A404D894FF6FF7606EA05252A43ED
:102EF0004FF6FF352A408D8806EA05252A434EF60F
:102F0000FF752B404DF6FF752B408D8906EA0515A0
:102F10002B43CD8906EA05152B4383808483CD8816
:102F20008587028470BD70B5002200230024058CC3
:102F30004EF6FF7635400584038C8488828B48F6F4
:102F4000FF752A404FF6FF452A400D8820E000001B
:102F5000002C01400004004000080040000C00402C
:102F6000001000400014004000340140004C0140BB
:102F7000005001400054014000180040001C004077
:102F80000020004000400140004401400048014052
:102F90004FF6FF7606EA05252A434DF6FF752B40CE
:102FA0000D8906EA05352B434D8806EA05352B4386
:102FB000FA4DA84202D0FA4DA84208D14BF6FF754F
:102FC0002C408D894FF6FF7606EA85152C438480C8
:102FD0008283CD88A0F84050038470BD828B4FF26D
:102FE000FF331A408283828B4FF6FF7303EA01237B
:102FF0001A4382837047F0B50C4615460022002123
:103000000026078C4EF6FF7C07EA0C070784828BAC
:10301000018C4FF6FF7707EA043640F6FF473A4047
:103020004FF6FF7707EA05273A434FF6FF7707EA9F
:1030300003373A43D94FB8420ED0D94FB8420BD0DC
:10304000B0F1804F08D0D74FB84205D0D64FB84224
:1030500002D0D64FB84206D14DF6FF77394046F43C
:103060008057394305E047F6FF57394044F480570D
:10307000394382830184F0BD828B4FF6F3731A408B
:103080008283828B0A4382837047F0B50C461546D3
:10309000002200210026078C4FF6FF6C07EA0C0780
:1030A0000784828B018C4FF6FF7707EA04264FF6E0
:1030B0000C773A404FF6FF7707EA03172F433A435E
:1030C000B64FB8420ED0B64FB8420BD0B0F1804FD9
:1030D00008D0B44FB84205D0B34FB84202D0B34F76
:1030E000B84206D14FF6FF57394046F4807739434E
:1030F00005E04FF2FF57394044F48077394382832B
:103100000184F0BD028B4FF2FF331A400283028B21
:103110004FF6FF7303EA01231A4302837047F0B5A9
:103120000C461546002200210026078C4FF6EF7C46
:1031300007EA0C070784028B018C4FF6FF7707EA3A
:10314000041640F6FF473A404FF6FF7707EA033789
:103150003A434FF6FF7707EA05273A438F4FB842C5
:103160000ED08F4FB8420BD0B0F1804F08D08D4FAA
:10317000B84205D08C4FB84202D08C4FB84206D12D
:103180004FF6DF77394046F01007394305E04FF638
:103190005F77394044F01007394302830184F0BD62
:1031A000028B4FF6F3731A400283028B0A430283A9
:1031B0007047F0B50C46154600220021068C4FF6EC
:1031C000FE773E400684028B018C4FF60C7632402F
:1031D0007E1C06EA03162E433243704EB0420ED0D8
:1031E0006F4EB0420BD0B0F1804F08D06D4EB04260
:1031F00005D06D4EB04202D06C4EB04206D14FF6B3
:10320000FD76314044F00106314305E04FF6F57696
:10321000314044F00106314302830184F0BD70B5B2
:1032200005460C465D4885420ED05D4885420BD070
:10323000B5F1804F08D05B48854205D05A48854299
:1032400002D05A48854200D100E000BF208850B922
:103250002389A28861882846FFF7ABFFE1882846CA
:10326000FFF79EFF25E0208804280AD12389A28841
:1032700061882846FFF753FFE1882846FFF742FFA1
:1032800017E0208808280AD12389A2886188284667
:10329000FFF7FBFEE1882846FFF7EEFE09E02389F1
:1032A000A28861882846FFF7A6FEE1882846FFF736
:1032B00095FE70BD2DE9F04105460C46002601271C
:1032C000608808B9022600E00026A088012801D104
:1032D000022700E001272088A0B92389A2886188FD
:1032E0002846FFF766FFE1882846FFF759FF238944
:1032F0003A4631462846FFF712FFE1882846FFF795
:1033000001FF13E02389A28861882846FFF707FFA1
:10331000E1882846FFF7F6FE23893A4631462846DB
:10332000FFF747FFE1882846FFF73AFFBDE8F08145
:103330000A884B881A438B881A43CB881A430B8917
:103340001A434B891A438B891A43A0F844207047CB
:103350004FF6FF71818000210180C18041800172A0
:1033600070470021018041808180C18001814181BD
:103370008181C181704700210180418001218180CC
:103380000021C1800181704700210180418081803E
:10339000C18001814181818170470000002C014082
:1033A000003401400004004000080040000C0040D0
:1033B00021B1028842F00102028004E002884FF647
:1033C000FE731A400280704731B1B0F8442042F4D5
:1033D0000042A0F8442005E0B0F84420C2F30E02F9
:1033E000A0F8442070471AB183890B43838102E01F
:1033F00083898B43838170478182704741EA02034E
:10340000A0F8483070471AB183890B43838102E0EA
:1034100083898B438381704701894FF6F87211408D
:10342000018170470A46002101894FF68F731940C8
:1034300011430181704730B504460D4629462046A8
:10344000FFF7F0FF208940F00700208130BD2DE913
:10345000F04104460D4616461F46602D06D13B46F8
:10346000012231462046FFF75AFE05E03B46012285
:1034700031462046FFF79DFE29462046FFF7D2FF42
:10348000208940F007002081BDE8F08130B50C466E
:1034900000210189C9B24FF6FF7505EA03251543DE
:1034A00025432943018130BD2DE9F04105460E46F3
:1034B00017469846002443463A4631462846FFF7C9
:1034C000E5FF2C894FF6F870044044F007044FF6EE
:1034D0008F70044044F070042C81BDE8F081F0B599
:1034E00004460D4616461F463B46324629462046B0
:1034F000FFF7CCFF208940F480402081F0BD01859A
:10350000828270470A46002101884FF68F73194066
:10351000114301807047F0B50C4615461E46002148
:10352000002200230189028B038C4FF6F877394083
:1035300021434FF6FC473A4040F201173A434FF619
:10354000DD773B404FF6FF7707EA06172F433B43F3
:10355000018102830384F0BD0A460021018B4FF6EE
:103560008F7319401143018370470A460021018B74
:1035700048F6FF7319404FF6FF7303EA022319431D
:10358000018370470A460021818B4FF68F731940E3
:103590001143818370470A460021818B48F6FF73EF
:1035A00019404FF6FF7303EA0223194381837047E2
:1035B00021B1028842F08002028004E002884FF6C6
:1035C0007F731A400280704721B1828842F0040262
:1035D000828004E082884FF6FB731A408280704735
:1035E00021B1828842F00802828004E082884FF68E
:1035F000F7731A408280704721B1828842F001023D
:10360000828004E082884FF6FE731A408280704701
:103610000A460021018B4FF6F773194011430183CD
:1036200070470A460021018B4FF2FF7319404FF695
:10363000FF7303EA02231943018370470A460021FE
:10364000818B4FF6F77319401143818370470A4607
:103650000021818B4FF2FF7319404FF6FF7303EA8D
:1036600002231943818370470A460021018B4FF6DC
:10367000FB7319401143018370470A460021018BF7
:103680004FF6FF3319404FF6FF7303EA0223194345
:10369000018370470A460021818B4FF6FB73194066
:1036A0001143818370470A460021818B4FF6FF3317
:1036B00019404FF6FF7303EA0223194381837047D1
:1036C0000A460021018B4FF67F7319401143018395
:1036D00070470A460021018BC1F30E014FF6FF73BC
:1036E00003EA02231943018370470A460021818BB4
:1036F0004FF67F7319401143818370470A460021BA
:10370000818BC1F30E014FF6FF7303EA02231943C5
:10371000818370470A460021018C4FF6FD731940E2
:103720001143018470470A460021018C4FF6F7735C
:1037300019401143018470470A460021018C4FF65D
:10374000DF7319404FF6FF7303EA02131943018434
:1037500070470A460021018C4FF67F7319404FF6DF
:10376000FF7303EA02131943018470470A460021DC
:10377000018C4FF6FF5319404FF6FF7303EA022303
:103780001943018470470A460021018C4FF2FF73F0
:1037900019404FF6FF7303EA02231943018470476F
:1037A0000A460021018C4DF6FF7319404FF6FF7356
:1037B00003EA023319430184704730B50023012422
:1037C0008C40A3B2048C9C430484048C02FA01F55F
:1037D000ADB22C43048430BD30B5002304248C40AA
:1037E000A3B2048C9C430484048C02FA01F5ADB2AC
:1037F0002C43048430BD70B50346002000241846D5
:10380000183001258D40ACB21D8CA5431D8409B133
:10381000082909D100EB6100056825F070050560F5
:103820000568154305600EE00D1FC5F34E052844DD
:10383000056825F4E045056005684FF6FF7606EA61
:1038400002263543056070BD21B1028842F00202B4
:10385000028004E002884FF6FD731A400280704730
:1038600021B1028842F00402028004E002884FF68F
:10387000FB731A400280704721B1828842F08002B7
:10388000828004E082884FF67F731A4082807047FE
:1038900002884FF6F7731A40028002880A430280BA
:1038A000704782884FF68F731A40828082880A435D
:1038B0008280704702894FF6F8731A4002810289AC
:1038C0000A430281704702894FF67F731A400281D2
:1038D00002890A430281704781847047818570475D
:1038E000818670470187704781877047A0F8401034
:1038F000704702884FF6FF431A40028002880A434D
:10390000028070470146888E70470146088F7047D5
:103910000146888F70470146B1F840007047014664
:10392000888C70470146088D704702460020138A34
:103930000B400BB1012000E000207047CA43028217
:10394000704730B50246002000230024158A05EA9E
:103950000103958905EA010413B10CB1012000E0CF
:10396000002030BDCA4302827047000010B50446F3
:10397000FB48844209D101218803FEF719FF002189
:103980004FF48040FEF714FF32E0F648844209D13C
:1039900001214804FEF719FF00214FF40030FEF723
:1039A00014FF25E0F048844209D101218804FEF784
:1039B0000CFF00214FF48020FEF707FF18E0EB48D2
:1039C000844209D10121C804FEF7FFFE00214FF413
:1039D0000020FEF7FAFE0BE0E548844208D1012101
:1039E0000805FEF7F2FE00214FF48010FEF7EDFE11
:1039F00010BD2DE9F04786B005460E460024A246CC
:103A000000BFA1460027B08900B100BF2F462C8A15
:103A10004CF6FF700440F08804432C82AC894EF6CB
:103A2000F3100440B0883189084371890843044386
:103A3000AC81AC8A4FF6FF400440B0890443AC82AD
:103A400001A8FEF72EFEC648874202D1DDF810A07D
:103A500001E0DDF80CA0A88900F4004040B10AEBB9
:103A6000CA0000EB0A1031684900B0FBF1F807E02A
:103A70000AEBCA0000EB0A1031688900B0FBF1F8CC
:103A80006420B8FBF0F004012009642101FB1089D7
:103A9000A88900F4004040B1322000EBC900B0FB1F
:103AA000F1F000F00700044308E0322000EB0910B9
:103AB0006421B0FBF1F000F00F0004432C8106B04C
:103AC000BDE8F0874FF41651016000218180C1806C
:103AD00001810C21418100218181704710B502468E
:103AE0000020108A4FF2FF0318400B884C882343B4
:103AF0008C882343CC8823431843108210BD0021B7
:103B0000018041808180C180704721B1828942F467
:103B10000052828104E082894DF6FF731A4082814F
:103B20007047F0B50346002400260025002040F62B
:103B30006A17B94200D100BF1846C1F3421401F020
:103B40001F06012707FA06F5012C01D10C3004E00D
:103B5000022C01D1103000E014301AB107682F4355
:103B6000076002E00768AF430760F0BD1AB1838ABF
:103B70000B43838202E0838A8B4383827047028AED
:103B80004FF6F0731A400282028A0A43028270479B
:103B900082894FF2FF731A40828182890A438281AF
:103BA000704721B1828942F00202828104E0828959
:103BB0004FF6FD731A4082817047028A4FF6DF7319
:103BC0001A400282028A0A430282704721B1028AA5
:103BD00042F48042028204E0028A4BF6FF731A40EC
:103BE00002827047C1F308028280704701468888CC
:103BF000C0F308007047818941F00101818170475D
:103C0000028BD2B20283028B42EA01220283704706
:103C1000028B02F47F420283028B0A4302837047C5
:103C200021B1828A42F02002828204E0828A4FF629
:103C3000DF731A408282704721B1828A42F01002FB
:103C4000828204E0828A4FF6EF731A4082827047C4
:103C500021B1828A42F00802828204E0828A4FF611
:103C6000F7731A408282704721B1828942F4004280
:103C7000828103E08289C2F30E028281704721B102
:103C8000828A42F40062828204E0828A4FF2FF73E9
:103C90001A4082827047828A4FF6FB731A408282F2
:103CA000828A0A438282704721B1828A42F00202EC
:103CB000828204E0828A4FF6FD731A408282704746
:103CC00002460020B1F5007F00D100BF13880B40F1
:103CD0000BB1012000E00020704701F40072B2F542
:103CE000007F00D100BFCA430280704770B5024612
:103CF000002400230025002040F66A16B14200D1BE
:103D000000BFC1F3421501F01F03012606FA03F3B9
:103D1000012D02D19689334006E0022D02D1168A88
:103D2000334001E0968A33400C12012606FA04F46F
:103D30001688344013B10CB1012000E0002070BDA2
:103D400010B50022002340F66A14A14200D100BF42
:103D50000A1201249440A3B2DC43048010BD000089
:103D6000003801400044004000480040004C004042
:103D70000050004010B50121C802FEF726FD0021C9
:103D80004FF40060FEF721FD10BD0021194A1268B2
:103D900022F4C0710143174A1160704708B5002131
:103DA00000911449096821F07F01009100F07F0122
:103DB000009A114300910F4A0099116008BD01203B
:103DC0000D490860704700F07F010A4A121F116018
:103DD000704740F08001074A121F11607047054884
:103DE000001D0068C0B2704700200249091D08602C
:103DF00070470000042C0040A48005420CB5002050
:103E0000019000906C48006840F480306A49086076
:103E100000BF6948006800F4003000900198401C21
:103E20000190009818B90198B0F5A06FF1D16248DF
:103E3000006800F4003010B10120009001E0002083
:103E400000900098012843D15C48006840F01000C1
:103E50005A4908600846006820F0030008600846D8
:103E6000006840F0020008605348406852494860CA
:103E70000846406848600846406840F480604860F2
:103E80000846406820F47C1048600846406840F4CA
:103E9000E81048600846006840F08070086000BF85
:103EA0004548006800F000700028F9D0424840689A
:103EB00020F00300404948600846406840F0020096
:103EC000486000BF3C48406800F00C000828F9D169
:103ED0000CBD10B5FFF792FF10BD10B53648006855
:103EE00040F0010034490860084640683449084001
:103EF0003149486008460068324908402E49086048
:103F00000846006820F4802008600846406820F4D5
:103F1000FE0048604FF41F008860FFF7DAFF4FF0A3
:103F200000602949086010BD10B500210020002262
:103F3000214B5B6803F00C0121B1042906D008294C
:103F400028D107E0214B224C236027E01F4B204C57
:103F5000236023E0184B5B6803F47010164B5B681A
:103F600003F48032022303EB904022B9194B434300
:103F7000174C23600DE0104B5B6803F4003323B152
:103F8000144B4343124C236003E0104B4343104C4B
:103F9000236003E00D4B0E4C236000BF00BF064BB7
:103FA0005B68C3F303130C4CE15C094B1B68CB400B
:103FB000074C236010BD00000010024000200240AA
:103FC0000000FFF8FFFFF6FE08ED00E000127A00A7
:103FD0003800002000093D003C000020D2B201E082
:103FE00000F8012B491EFBD270470022F6E710B5FE
:103FF00013460A4604461946FFF7F0FF204610BD57
:1040000030B50B46014600202022012409E021FAA8
:1040100002F59D4205D303FA02F5491B04FA02F5A5
:104020002844151EA2F10102F1DC30BD064C074DFB
:1040300006E0E06840F0010394E807009847103478
:10404000AC42F6D3FCF756F8484200086842000834
:104050000FB4054B10B503A9044A029800F018F8F4
:1040600010BC5DF814FB0000830600084C00002023
:1040700002E008C8121F08C1002AFAD17047704731
:10408000002001E001C1121F002AFBD1704700008F
:104090002DE9FF4F8BB09A460F460546002606E0F5
:1040A00025280BD052460D9990476D1C761C287818
:1040B0000028F5D10FB03046BDE8F08F0024A046AF
:1040C0000122604900E0044315F8013F203B02FA59
:1040D00003F00842F7D128782E2817D115F8010FE0
:1040E00044F004042A280ED06FF02F022878A0F1A3
:1040F000300109290AD808EB880102EB410100EBE5
:1041000001086D1CF2E757F8048B6D1C28786928AC
:104110003ED006DC0028CDD063280BD0642804D123
:1041200036E0732810D075284BD052460D99904731
:10413000761C85E017F8040B8DF8000000208DF840
:104140000100E946012003E057F8049B4FF0FF30DF
:1041500061074FF0000401D40AE0641C44450DDA05
:104160008442FADB19F804100029F6D106E0641C39
:104170008442FCDB19F804100029F8D1264404E03D
:1041800019F8010B52460D999047641EF8D257E07A
:1041900001CF4FF00A0B002802DA40422D2102E045
:1041A000210504D52B218DF82410012103E0E1071E
:1041B00005D02021F7E70DF1200908910CE000213E
:1041C000F9E701CF4FF00A0BF9E75946FFF718FF5F
:1041D00001F1300209F8012D0028F6D1ADEB0900FC
:1041E00000F1200B600701D44FF00108D84502DD33
:1041F000A8EB0B0000E000208046002406E009A8A0
:104200005246005D0D999047641C761C08988442C4
:10421000F5DB04E0302052460D999047761CB8F14A
:104220000001A8F10108F5DC05E019F8010B524680
:104230000D999047761CBBF10001ABF1010BF4DC4A
:104240006D1C34E7092801006842000800000020C6
:104250005000000070400008B842000850000020E4
:10426000B0180000804000080000000000000000BE
:10427000000000000000000000000000000000003E
:10428000000000000000000000000000000000002E
:1042900001020304010203040607080902040608D8
:1042A00000A24A0400000000000000000102030414
:0842B0000607080900000000E8
:04000005080000ED02
:00000001FF
